+ 65315	20190920-01:31:37.800 : 8=FIXT.1.1|9=236|35=G|34=398|49=CO02099001|52=20190920-01:31:37.800|56=HKEXCO
|142=CN|11=12086670|22=8|37=20147713|38=360000|40=2|41=12086668|44=0.088|48=23444|54=1|59=0|
60=20190920-01:31:37.800|207=XHKG|453=1|448=7650|447=D|452=1|1812=1|1813=100|1814=1|10=074|



+ 65316	20190920-01:31:37.801 : 8=FIXT.1.1|9=257|35=8|49=HKEXCO|56=CO02099001|34=402|52=20190920-01:31:37.811|
1128=9|11=12086670|14=0|17=Wr/.B51./IMH0|150=5|151=360000|453=1|448=7650|447=D|452=1|37=38634753|38=360000
|39=0|40=2|41=12086668|44=0.088|207=XHKG|48=23444|22=8|54=1|59=0|60=20190920-01:31:37.000|10=148|






+ 65307	20190920-01:30:29.200 : 8=FIXT.1.1|9=217|35=D|34=394|49=CO02099001|52=20190920-01:30:29.200|56=HKEXCO|142=CN|11=12086668|18=c|22=8|38=360000|40=2|44=0.087|48=23444|54=1|59=0|60=20190920-01:30:29.200|207=XHKG|453=1|448=7650|447=D|452=1|1812=1|1813=100|1814=1|10=189|
+ 65308	20190920-01:30:29.201 : 8=FIXT.1.1|9=252|35=8|49=HKEXCO|56=CO02099001|34=398|52=20190920-01:30:29.211|1128=9|11=12086668|14=0|17=Wr/.Id0./sqA/|150=0|151=360000|1093=2|453=1|448=7650|447=D|452=1|37=20147713|38=360000|39=0|40=2|44=0.087|207=XHKG|48=23444|22=8|54=1|59=0|60=20190920-01:30:29.000|10=250|
+ 65315	20190920-01:31:37.800 : 8=FIXT.1.1|9=236|35=G|34=398|49=CO02099001|52=20190920-01:31:37.800|56=HKEXCO|142=CN|11=12086670|22=8|37=20147713|38=360000|40=2|41=12086668|44=0.088|48=23444|54=1|59=0|60=20190920-01:31:37.800|207=XHKG|453=1|448=7650|447=D|452=1|1812=1|1813=100|1814=1|10=074|
+ 65316	20190920-01:31:37.801 : 8=FIXT.1.1|9=257|35=8|49=HKEXCO|56=CO02099001|34=402|52=20190920-01:31:37.811|1128=9|11=12086670|14=0|17=Wr/.B51./IMH0|150=5|151=360000|453=1|448=7650|447=D|452=1|37=38634753|38=360000|39=0|40=2|41=12086668|44=0.088|207=XHKG|48=23444|22=8|54=1|59=0|60=20190920-01:31:37.000|10=148|



65317	20190920-01:31:38.176 : 8=FIXT.1.1|9=236|35=G|34=399|49=CO02099001|52=20190920-01:31:38.176|56=HKEXCO|142=CN|11=12086671|22=8|37=38634753|38=360000|40=2|41=12086670|44=0.089|48=23444|54=1|59=0|60=20190920-01:31:38.176|207=XHKG|453=1|448=7650|447=D|452=1|1812=1|1813=100|1814=1|10=098|
65318	20190920-01:31:38.177 : 8=FIXT.1.1|9=257|35=8|49=HKEXCO|56=CO02099001|34=403|52=20190920-01:31:38.188|1128=9|11=12086671|14=0|17=Wr/.C51./6aH0|150=5|151=360000|453=1|448=7650|447=D|452=1|37=38691329|38=360000|39=0|40=2|41=12086670|44=0.089|207=XHKG|48=23444|22=8|54=1|59=0|60=20190920-01:31:38.000|10=157|

65319	20190920-01:31:38.628 : 8=FIXT.1.1|9=236|35=G|34=400|49=CO02099001|52=20190920-01:31:38.628|56=HKEXCO|142=CN|11=12086672|22=8|37=38691329|38=360000|40=2|41=12086671|44=0.090|48=23444|54=1|59=0|60=20190920-01:31:38.628|207=XHKG|453=1|448=7650|447=D|452=1|1812=1|1813=100|1814=1|10=081|
65320	20190920-01:31:38.629 : 8=FIXT.1.1|9=256|35=8|49=HKEXCO|56=CO02099001|34=404|52=20190920-01:31:38.640|1128=9|11=12086672|14=0|17=Wr/.I51./UhH0|150=5|151=360000|453=1|448=7650|447=D|452=1|37=38721537|38=360000|39=0|40=2|41=12086671|44=0.09|207=XHKG|48=23444|22=8|54=1|59=0|60=20190920-01:31:38.000|10=135|

65321	20190920-01:31:40.263 : 8=FIXT.1.1|9=236|35=G|34=401|49=CO02099001|52=20190920-01:31:40.262|56=HKEXCO|142=CN|11=12086673|22=8|37=38721537|38=360000|40=2|41=12086672|44=0.089|48=23444|54=1|59=0|60=20190920-01:31:40.262|207=XHKG|453=1|448=7650|447=D|452=1|1812=1|1813=100|1814=1|10=061|
65322	20190920-01:31:40.263 : 8=FIXT.1.1|9=257|35=8|49=HKEXCO|56=CO02099001|34=405|52=20190920-01:31:40.274|1128=9|11=12086673|14=0|17=Wr/.W51./EJJ0|150=5|151=360000|453=1|448=7650|447=D|452=1|37=39146497|38=360000|39=0|40=2|41=12086672|44=0.089|207=XHKG|48=23444|22=8|54=1|59=0|60=20190920-01:31:40.000|10=161|

65323	20190920-01:31:41.425 : 8=FIXT.1.1|9=236|35=G|34=402|49=CO02099001|52=20190920-01:31:41.425|56=HKEXCO|142=CN|11=12086674|22=8|37=39146497|38=360000|40=2|41=12086673|44=0.090|48=23444|54=1|59=0|60=20190920-01:31:41.425|207=XHKG|453=1|448=7650|447=D|452=1|1812=1|1813=100|1814=1|10=067|
65324	20190920-01:31:41.426 : 8=FIXT.1.1|9=256|35=8|49=HKEXCO|56=CO02099001|34=406|52=20190920-01:31:41.437|1128=9|11=12086674|14=0|17=Wr/.J61./AcK0|150=5|151=360000|453=1|448=7650|447=D|452=1|37=39486209|38=360000|39=0|40=2|41=12086673|44=0.09|207=XHKG|48=23444|22=8|54=1|59=0|60=20190920-01:31:41.000|10=118|


65331	20190920-01:31:45.690 : 8=FIXT.1.1|9=236|35=G|34=406|49=CO02099001|52=20190920-01:31:45.690|56=HKEXCO|142=CN|11=12086678|22=8|37=40224001|38=360000|40=2|41=12086677|44=0.090|48=23444|54=1|59=0|60=20190920-01:31:45.690|207=XHKG|453=1|448=7650|447=D|452=1|1812=1|1813=100|1814=1|10=065|
65332	20190920-01:31:45.691 : 8=FIXT.1.1|9=256|35=8|49=HKEXCO|56=CO02099001|34=410|52=20190920-01:31:45.702|1128=9|11=12086678|14=0|17=Wr/.181./MEO0|150=5|151=360000|453=1|448=7650|447=D|452=1|37=40437249|38=360000|39=0|40=2|41=12086677|44=0.09|207=XHKG|48=23444|22=8|54=1|59=0|60=20190920-01:31:45.000|10=079|





+ 65333	20190920-01:31:46.739 : 8=FIXT.1.1|9=236|35=G|34=407|49=CO02099001|52=20190920-01:31:46.739|56=HKEXCO|142=CN|11=12086679|22=8|37=40437249|38=360000|40=2|41=12086678|44=0.091|48=23444|54=1|59=0|60=20190920-01:31:46.739|207=XHKG|453=1|448=7650|447=D|452=1|1812=1|1813=100|1814=1|10=099|
+ 65336	20190920-01:31:46.740 : 8=FIXT.1.1|9=257|35=8|49=HKEXCO|56=CO02099001|34=412|52=20190920-01:31:46.751|1128=9|11=12086679|14=0|17=Wr/.G81./EuO0|150=5|151=360000|453=1|448=7650|447=D|452=1|37=40608769|38=360000|39=0|40=2|41=12086678|44=0.091|207=XHKG|48=23444|22=8|54=1|59=0|60=20190920-01:31:46.000|10=208|

+ 65334	20190920-01:31:46.739 : 8=FIXT.1.1|9=236|35=G|34=408|49=CO02099001|52=20190920-01:31:46.739|56=HKEXCO|142=CN|11=12086680|22=8|37=40437249|38=360000|40=2|41=12086678|44=0.091|48=23444|54=1|59=0|60=20190920-01:31:46.739|207=XHKG|453=1|448=7650|447=D|452=1|1812=1|1813=100|1814=1|10=092|
+ 65335	20190920-01:31:46.740 : 8=FIXT.1.1|9=240|35=9|49=HKEXCO|56=CO02099001|34=411|52=20190920-01:31:46.751|1128=9|11=12086680|102=3|434=2|453=1|448=7650|447=D|452=1|37=40437249|39=E|41=12086678|1328=7062 Order already in Pending Cancel or Pending Replace State|60=20190920-01:31:46.000|10=137|



+ 65337	20190920-01:31:46.955 : 8=FIXT.1.1|9=236|35=G|34=409|49=CO02099001|52=20190920-01:31:46.955|56=HKEXCO|142=CN|11=12086681|22=8|37=40437249|38=360000|40=2|41=12086679|44=0.091|48=23444|54=1|59=0|60=20190920-01:31:46.955|207=XHKG|453=1|448=7650|447=D|452=1|1812=1|1813=100|1814=1|10=095|
+ 65338	20190920-01:31:46.955 : 8=FIXT.1.1|9=201|35=9|49=HKEXCO|56=CO02099001|34=413|52=20190920-01:31:46.966|1128=9|11=12086681|102=99|434=2|453=1|448=7650|447=D|452=1|37=40608769|39=0|41=12086679|1328=7089 Invalid Order ID|60=20190920-01:31:46.000|10=057|

+ 65341	20190920-01:31:48.265 : 8=FIXT.1.1|9=236|35=G|34=411|49=CO02099001|52=20190920-01:31:48.265|56=HKEXCO|142=CN|11=12086683|22=8|37=40437249|38=360000|40=2|41=12086679|44=0.091|48=23444|54=1|59=0|60=20190920-01:31:48.265|207=XHKG|453=1|448=7650|447=D|452=1|1812=1|1813=100|1814=1|10=082|
+ 65342	20190920-01:31:48.266 : 8=FIXT.1.1|9=201|35=9|49=HKEXCO|56=CO02099001|34=415|52=20190920-01:31:48.276|1128=9|11=12086683|102=99|434=2|453=1|448=7650|447=D|452=1|37=40608769|39=0|41=12086679|1328=7089 Invalid Order ID|60=20190920-01:31:48.000|10=059|




+ 65331	20190920-01:31:45.690 : 8=FIXT.1.1|9=236|35=G|34=406|49=CO02099001|52=20190920-01:31:45.690|56=HKEXCO|142=CN|11=12086678|22=8|37=40224001|38=360000|40=2|41=12086677|44=0.090|48=23444|54=1|59=0|60=20190920-01:31:45.690|207=XHKG|453=1|448=7650|447=D|452=1|1812=1|1813=100|1814=1|10=065|
+ 65332	20190920-01:31:45.691 : 8=FIXT.1.1|9=256|35=8|49=HKEXCO|56=CO02099001|34=410|52=20190920-01:31:45.702|1128=9|11=12086678|14=0|17=Wr/.181./MEO0|150=5|151=360000|453=1|448=7650|447=D|452=1|37=40437249|38=360000|39=0|40=2|41=12086677|44=0.09|207=XHKG|48=23444|22=8|54=1|59=0|60=20190920-01:31:45.000|10=079|
+ 65333	20190920-01:31:46.739 : 8=FIXT.1.1|9=236|35=G|34=407|49=CO02099001|52=20190920-01:31:46.739|56=HKEXCO|142=CN|11=12086679|22=8|37=40437249|38=360000|40=2|41=12086678|44=0.091|48=23444|54=1|59=0|60=20190920-01:31:46.739|207=XHKG|453=1|448=7650|447=D|452=1|1812=1|1813=100|1814=1|10=099|
+ 65334	20190920-01:31:46.739 : 8=FIXT.1.1|9=236|35=G|34=408|49=CO02099001|52=20190920-01:31:46.739|56=HKEXCO|142=CN|11=12086680|22=8|37=40437249|38=360000|40=2|41=12086678|44=0.091|48=23444|54=1|59=0|60=20190920-01:31:46.739|207=XHKG|453=1|448=7650|447=D|452=1|1812=1|1813=100|1814=1|10=092|
+ 65335	20190920-01:31:46.740 : 8=FIXT.1.1|9=240|35=9|49=HKEXCO|56=CO02099001|34=411|52=20190920-01:31:46.751|1128=9|11=12086680|102=3|434=2|453=1|448=7650|447=D|452=1|37=40437249|39=E|41=12086678|1328=7062 Order already in Pending Cancel or Pending Replace State|60=20190920-01:31:46.000|10=137|
+ 65336	20190920-01:31:46.740 : 8=FIXT.1.1|9=257|35=8|49=HKEXCO|56=CO02099001|34=412|52=20190920-01:31:46.751|1128=9|11=12086679|14=0|17=Wr/.G81./EuO0|150=5|151=360000|453=1|448=7650|447=D|452=1|37=40608769|38=360000|39=0|40=2|41=12086678|44=0.091|207=XHKG|48=23444|22=8|54=1|59=0|60=20190920-01:31:46.000|10=208|













